:020000040800F2
:10000000D04E0020310200083F02000841020008E3
:1000100043020008450200084702000800000000F3
:10002000000000000000000000000000490200087D
:100030004B020008000000004D0200084F020008BB
:100040005102000851020008510200085102000844
:100050005102000851020008510200085102000834
:100060005102000851020008510200085102000824
:100070005102000851020008510200085102000814
:100080005102000851020008510200085102000804
:1000900051020008510200085102000851020008F4
:1000A00051020008510200085102000851020008E4
:1000B00051020008691000085102000851020008AE
:1000C00051020008510200085102000851020008C4
:1000D00051020008510200085102000851020008B4
:1000E00051020008510200085102000851020008A4
:1000F0005102000851020008510200085102000894
:100100005102000851020008510200085102000883
:100110005102000851020008510200085102000873
:100120005102000851020008510200085102000863
:100130005102000851020008510200085102000853
:100140005102000851020008510200085102000843
:10015000510200085102000851020008FD11000878
:100160005102000851020008510200085102000823
:100170005102000851020008510200085102000813
:10018000510200085102000800F002F800F03CF8AB
:100190000AA090E8000C82448344AAF10107DA45E2
:1001A00001D100F031F8AFF2090EBAE80F0013F0F8
:1001B000010F18BFFB1A43F001031847A4520000B7
:1001C000C4520000103A24BF78C878C1FAD8520748
:1001D00024BF30C830C144BF04680C6070470000C1
:1001E0000023002400250026103A28BF78C1FBD840
:1001F000520728BF30C148BF0B6070471FB502F0DF
:10020000CFFF1FBD10B510BD00F095F81146FFF7E8
:10021000F5FF02F0C1FC00F0B3F803B4FFF7F2FF02
:1002200003BC00F0B7F8000080F3088870470000B6
:100230000B48016841F4700101600A480047FEE77D
:10024000FEE7FEE7FEE7FEE7FEE7FEE7FEE7FEE786
:10025000FEE7000004480549034A054B70470000CB
:1002600088ED00E089010008D04A0020D04E00202F
:10027000D04A002010B5203AC0F00B80B1E81850E9
:10028000203AA0E81850B1E81850A0E81850BFF480
:10029000F5AF5FEA027C24BFB1E81850A0E818501F
:1002A00044BF18C918C0BDE810405FEA827C24BF73
:1002B00051F8043B40F8043B08BF7047D20728BF01
:1002C00031F8023B48BF11F8012B28BF20F8023B50
:1002D00048BF00F8012B70474FF0000200B51346ED
:1002E00094469646203922BFA0E80C50A0E80C5056
:1002F000B1F12001BFF4F7AF090728BFA0E80C5007
:1003000048BF0CC05DF804EB890028BF40F8042BFF
:1003100008BF704748BF20F8022B11F0804F18BF6C
:1003200000F8012B704770477047704700487047CE
:100330006C4A002070477546FFF7F8FFAE4605008F
:100340006946534620F00700854618B020B5FFF7F0
:1003500081FFBDE820404FF000064FF000074FF04E
:1003600000084FF0000B21F00701AC46ACE8C009D3
:10037000ACE8C009ACE8C009ACE8C0098D467047DC
:1003800010B50446AFF300802046BDE81040FFF7EB
:1003900044BF000001491820ABBEFEE72600020062
:1003A00010B500BF01200A49086000BF00BF00204F
:1003B0000849086000BF0A2001F026F900BF0120AB
:1003C0000449086000BF642001F01EF910BD000060
:1003D00094024142AC8242421CB52548006840F07C
:1003E000E4002349086000BF01202249086000BFE3
:1003F00000BF2149086000BF00BF2049086000BF5E
:10040000032100230246CDE9001020211C4800F002
:100410005FF80120032100230246CDE90010C1024C
:10042000184800F055F80120032100230246CDE9C9
:1004300000100221144800F04BF81449542000F039
:1004400059FE00BF00200B49086000BF00BF0A49E9
:10045000086000BF642001F0D7F800BF0120064902
:10046000086000BF4FF47A7001F0CEF81CBD0000A8
:100470003038024094024142AC824242848243427C
:100480000008024000140240001C0240E20A07007B
:1004900030B5CC1000F1200353F824304C07E50EA2
:1004A0000F24AC40A343CD1000F1200444F82530C4
:1004B000CC1000F1200353F824304C07E40E02FA6C
:1004C00004F42343CD1000F1200444F8253030BD5E
:1004D0002DE9F0470C46DDE90867002100258C4630
:1004E00000BF60E04FF0010808FA01F504EA050CCE
:1004F000AC4557D1D0F800804FEA410A4FF00309CC
:1005000009FA0AF928EA0908C0F80080D0F8008042
:100510004FEA410902FA09F948EA0908C0F80080DF
:10052000012A01D0022A27D1D0F808804FEA410AD7
:100530004FF0030909FA0AF928EA0908C0F8088007
:10054000D0F808804FEA410906FA09F948EA090893
:10055000C0F80880D0F804904FF0010808FA01F8BC
:1005600029EA0809C0F80490D0F8048003FA01F9D8
:1005700048EA0908C0F80480D0F80C804FEA410A24
:100580004FF0030909FA0AF928EA0908C0F80C80B3
:10059000D0F80C804FEA410907FA09F948EA09083E
:1005A000C0F80C80491C10299CD3BDE8F0870000DE
:1005B0001CB50848006840F00100064908600220A8
:1005C000032100230122CDE9001011460248FFF764
:1005D0007FFF1CBD30380240000002400149086026
:1005E00070470000800240422DE9F04107468846EE
:1005F00014461D46284600F033F8C5F1040007FAFA
:1006000000F60F20284100EA0800064306F00F0616
:10061000E21704EBD2625211920002F1E022D2F80A
:1006200000212146E31704EBD3635B11A4EB431CC9
:10063000012303FA0CF31A432046E31704EBD363B8
:100640005B119B0003F1E023C3F800210348005D28
:1006500040EA061001490855BDE8F08100E400E0D9
:100660000146072323EA01021202054B18684FF6E0
:10067000FF031840034B18431043014B18607047A9
:100680000CED00E00000FA054A0A52020243014B59
:100690001A60704708ED00E010B5012000F032F953
:1006A000FF2000F03CF910BD70B505464FF6FF7411
:1006B00001E0601E84B2FF2000F031F9A84201D0B1
:1006C000002CF6D10CB9FF2070BD0020FCE7000023
:1006D000F8B500F01DF900F09FF9002504E0FF20B7
:1006E00000F01DF9681C85B20A2DF8DB142600BF46
:1006F00095220021084600F025F90446012C04D07B
:10070000301EA6F101018EB2F2D1002051490870CD
:10071000012C4AD187224FF4D571082000F012F93C
:10072000012847D1002506E0FF2000F0F8F80DF879
:100730000500681C85B2042DF6DB9DF80200012837
:1007400079D19DF80300AA2875D14FF6FE7600BF37
:1007500001220021372000F0F5F80122910729201D
:1007600000F0F0F8044624B1301EA6F101018EB26B
:10077000EED1002E5FD0012200213A2000F0E2F8F5
:10078000002858D1002506E0FF2000F0C8F80DF839
:100790000500681C85B2042DF6DB9DF8000000F012
:1007A000400018B106202B49087044E00420294974
:1007B000087040E001220021372000F0C3F8012238
:1007C0000021292000F0BEF80446012C17DC02208D
:1007D000204908704FF6FE7600BF01220021372025
:1007E00000F0B0F801220021292000F0ABF8044607
:1007F000BCB1301EA6F101018EB2EED111E0012094
:10080000144908704FF6FE7600BF01220021104601
:1008100000F098F8044624B1301EA6F101018EB212
:10082000F3D12EB101225102102000F08BF810B14B
:10083000002008490870FFF72FFF00F0E8F805488E
:10084000007808B10020F8BD0CB12046FBE7AA20D3
:10085000F9E70000060000202DE9F04106460F46AA
:10086000154619480078062800D07F02012D0CD1CA
:1008700001223946112000F065F80446F4B96902F6
:10088000304600F023F8044618E0012239461220D1
:1008900000F058F8044600BF4FF40071304600F0F5
:1008A00015F8044606F50076681E051E01D0002CDA
:1008B000F2D0012200210C2000F044F8FFF7ECFEFA
:1008C0002046BDE8F08100000600002070B5044617
:1008D0000D46FE20FFF7E8FE08B1012070BD04E0E0
:1008E000FF2000F01CF82070641C281EA5F10101F7
:1008F0008DB2F5D1FF2000F012F8FF2000F00FF8C4
:100900000020EBE710B50446204600F0F9F810BDD2
:1009100010B500F0FBF80120FFF7F4FF10BD10B593
:100920000446204600F052F910BD10B50020FFF734
:10093000E9FF00F076F808B9002010BDFFF7ACFE23
:100940000120FAE72DE9F04105460C4617464FF025
:100950000008FFF7A1FEFFF7E8FF10B1FF20BDE898
:10096000F08145F04000FFF7DAFF200EFFF7D7FFD8
:10097000C4F30740FFF7D3FFC4F30720FFF7CFFF0F
:10098000E0B2FFF7CCFF3846FFF7C9FF0C2D02D1CC
:10099000FF20FFF7C4FF4FF01F0800BFFF20FFF745
:1009A000BEFF064606F0800030B1B8F10000A8F1A5
:1009B000010101F0FF08F1D13046D0E770B50646DD
:1009C0000D4600F02EF808B1012070BD2846FFF753
:1009D000A6FFFD2D19D0002404E0305DFFF79FFF36
:1009E000601C84B2B4F5007FF7DBFF20FFF797FFB0
:1009F000FF20FFF794FFFF20FFF791FF044604F06C
:100A00001F00052801D00220DFE70020DDE710B538
:100A1000072000F0F3F810BD10B5072000F0EEF845
:100A200010BD10B5002400BFFF20FFF778FFFF289E
:100A300001D1002010BD641C6FF07F408442F3D3CD
:100A40000120F7E72DE9F04106460F4615462048FC
:100A50000078062800D07F02012D0CD101223946F2
:100A60001820FFF76FFF044664BBFE213046FFF7F6
:100A7000A5FF044626E016480078012809D0012287
:100A800000213720FFF75EFF012229461720FFF7DC
:100A900059FF012239461920FFF754FF04468CB94B
:100AA00000BFFC213046FFF789FF044606F50076BB
:100AB000681E051E01D0002CF3D0FD210020FFF799
:100AC0007DFF0446FFF7E8FD2046BDE8F081000009
:100AD000060000201CB50848006840F001000649E7
:100AE00008600120032100230246CDE900101021F7
:100AF0000248FFF7EDFC1CBD303802400000024008
:100B00000149086070470000900240421CB5002473
:100B1000FFF7E0FF2A48006840F00100284908601C
:100B20000846006840F0020008602548143000685C
:100B300040F4805022491431086001200321002331
:100B40000222CDE90010E0211E48FFF7C1FC05227A
:100B500007211C48FFF79CFC052211461948FFF7A6
:100B600097FC052206211748FFF792FC14480C3821
:100B7000006840F4805012490C390860084600684B
:100B800020F48050086000BF44F4007444F4807482
:100B900044F0040400BF44F0020444F0010444F0B3
:100BA000380400BF44F0400407480480808B20F4E0
:100BB000006005498883FF2000F008F81CBD000094
:100BC000303802400000024000300140014600BFC2
:100BD0000948008900F002000028F9D00648818108
:100BE00000BF0548008900F001000028F9D0024844
:100BF0008089C0B2704700000030014000F007005B
:100C0000084909884FF6C7721140064A11801146FB
:100C1000098841EAC00111801146098841F040016C
:100C2000118070470030014070B505460024194816
:100C300000F0BEF8044654BB1748006820F440702A
:100C4000154908600846006840F4007008600846CE
:100C5000006820F0F80008600846006840EAC50017
:100C600008600846006840F0020008600846006816
:100C700040F480300860074800F09AF80446012CE0
:100C800005D00548006820F00200034908602046AE
:100C900070BD0000400D0300103C024001461C489E
:100CA000814201D2002070471A48814201D20120BE
:100CB000F9E71948814201D20220F4E7174881423E
:100CC00001D20320EFE71648814201D20420EAE76F
:100CD0001448814201D20520E5E71348814201D240
:100CE0000620E0E71148814201D20720DBE71048E7
:100CF000814201D20820D6E70E48814201D2092064
:100D0000D1E70D48814201D20A20CCE70B20CAE787
:100D1000004000080080000800C000080000010832
:100D2000000002080000040800000608000008088F
:100D300000000A0800000C0800000E0800210E4800
:100D4000016801F4803008B10120704701F0100003
:100D500008B10220F9E701F0200008B10220F4E711
:100D600001F0400008B10220EFE701F0800008B177
:100D70000220EAE70020E8E70C3C02400348006854
:100D800040F000400149086070470000103C0240FC
:100D9000014608687047000002480349086003489C
:100DA0000860704723016745043C0240AB89EFCDE2
:100DB00070B5044600BFFFF7C1FF0546012D00D006
:100DC00005E00A2000F03CFC641E002CF3D100BFBB
:100DD00004B9FF25284670BD2DE9F04704460E46AC
:100DE00017464FF000080025A946B4F1006F02D362
:100DF00004F0030008B1BDE8F087FFF7CDFF1D4800
:100E0000006820F480601B490860254604EB8709D0
:100E10001948854214D210E02846FFF7B9FF401C5C
:100E200050B12846FFF73AFF8246FFF7FDFE8046A5
:100E3000B8F1000F01D002E02D1D4D45ECD300BFED
:100E4000B8F1000F0BD107E02046316800F016F82A
:100E500000B103E0241D361D4C45F5D300BF054805
:100E6000006840F4806003490860FFF787FF00BF17
:100E7000C1E70000003C02400000FF1F70B50546BE
:100E80000E46FF20FFF794FF0446E4B90F480068C0
:100E900020F440700D4908600846006840F4007076
:100EA00008600846006840F0010008602E60FF20DE
:100EB000FFF77EFF0446012C05D00448006820F0AF
:100EC000010002490860204670BD0000103C02404D
:100ED000F0B504460D4616461F461448006840F01B
:100EE00001001249086000201049083108600F48CD
:100EF00000680F4908400D4908600E48091D086048
:100F0000081F006820F48020091F0860002007499E
:100F10000C3108603B4632462946204600F00CF86A
:100F200000210846FFF7B0FBF0BD0000003802408A
:100F3000FFFFF6FE10300024F0B504460D460021F8
:100F400000203C4E366846F480363A4F3E6001E061
:100F50004E1CB1B2374E366806F4003616B9364E1E
:100F6000B142F5DB41F6FF76B14201D1012060E0EC
:100F7000304E4036366846F080562E4F40373E6041
:100F80002E4E366846F440462C4F3E60294E0836B9
:100F9000366846F41446274F08373E60254E3668BB
:100FA00026F08076234F3E6045EA84160127C7EB82
:100FB000520746EA074646EA036646F480061D4F96
:100FC0003F1D3E603E1F366846F080763F1F3E6004
:100FD00000BF184E366806F00076002EF9D0184E85
:100FE000366846F48076164F3E603E46366846F4D4
:100FF00000763E603E46366846F480663E603E4679
:10100000366846F005063E600A4E0836366826F019
:101010000306084F08373E603E46366846F0020633
:101020003E6000BF034E0836366806F00C06082EF8
:10103000F8D1F0BD00380240FFFF0F000070004003
:10104000003C02400648006820F0020004490860A5
:101050000448008820F00100024908807047000021
:10106000403802400004004000B50A48008800F003
:10107000010040B10849097881F00101064A117068
:101080000846FFF7ABFA0348008820F00100014949
:10109000088000BD100400401400002070B5054613
:1010A0000C461248006840F0020010490860002019
:1010B0000F4908600E4808300560001F04800C4886
:1010C0001838008840F0010009491839088008489C
:1010D0002438008840F001000549243908800223A3
:1010E0001D2200210120FFF77FFA70BD4038024029
:1010F00024040040F0B52DED028B83B005460E466A
:101100003A4905FB01F000EE100AF8EE400A300102
:1011100000EE100AB8EE400A80EE801AB0EE418A66
:10112000BCEEC80A10EE100A84B200EE104AB8EE07
:10113000400A38EE400AF3EE000A20EE200ABCEE28
:10114000C00A10EE107A4FF6FF7000EA0414E0199E
:1011500084B22748006840F004002549086024480C
:101160001430006840F0200021491431086001204B
:10117000022100230A46CDE90010C0211D48FFF7D7
:10118000A7F9082206211B48FFF782F90822072148
:101190001848FFF77DF918480480001D008820F4E6
:1011A00000401549091D08800846008840F00800E5
:1011B00008800846008840F004000880084600883F
:1011C00040F0200008800223472200210846FFF754
:1011D0000BFA0948001D008840F400500649091D1B
:1011E000088003B0BDEC028BF0BD000040420F0050
:1011F00030380240000802400814014014490988B0
:1012000001F0200119B31249091D0988C8B2C0288C
:1012100011D11049097831B900210F4A117001210B
:101220000C4A117013E000210A4A117001210B4A87
:1012300082F820100BE007490978012907D10649F7
:101240000A780978491C044B19700449885470477E
:10125000001401400D0000200C0000204842002036
:1012600000BF0549098801F040010029F9D0024971
:10127000091D0880704700000014014070B5044645
:101280000D460020E070401EE0622946204601F035
:1012900029FD08B1042070BD04F22E2001F076FC77
:1012A0004AF65521884201D00320F4E794F8300033
:1012B000E92807D094F83000EB2803D094F83000E8
:1012C000E82811D1032209A104F1660001F0E2FC33
:1012D00008B90020DFE7052205A104F1820001F032
:1012E000D9FC08B90020D6E70220D4E746415400D3
:1012F0004641543332000000024600E0521C107890
:1013000010B110788842F9D1107870470246891ED2
:101310005069801E884201D8002070475389906A26
:1013200003FB0100F9E72DE9F04782468846DAF829
:101330000040B8F1000F06D1E76817B16069B84204
:1013400015D8012713E04146504601F064FB0546DD
:10135000022D02D20120BDE8F087681C08B928469A
:10136000F9E76069A84201D92846F4E747462069B1
:1013700008B90020EFE70026474518D17E1C6069B8
:10138000B04200D802263146504601F044FB0546E3
:10139000012D01D0681C08B92846DCE73DB1E5689D
:1013A000022D03D36069A84200D92F460026E6B972
:1013B0003E4600BF761C6069B04204D80226BE4299
:1013C00001D90020C7E73146504601F024FB05460D
:1013D00005B909E0012D01D0681C08B92846BAE713
:1013E000BE42E7D10020B6E700BF4FF0FF323146E2
:1013F000204601F091FC8146B9F1000F08D1B8F107
:10140000000F05D032464146204601F085FC81465A
:10141000B9F1000F0DD1E660D4E90410801E8142BD
:1014200002D82069401E2061207940F0010020711F
:1014300007E0B9F1010F02D14FF0FF3000E00120C9
:101440000646304687E700002DE9F35F8946D9F864
:101450000080009800F120050B222021284601F091
:1014600038FC0020074606464FF0080B00BF304608
:10147000761C18F80040202C00DC4AE02F2C01D00C
:101480005C2C0AD100E0761C18F806002F28FAD050
:1014900018F806005C28F6D03BE02E2C01D05F4502
:1014A0000BD3BBF10B0F01D02E2C02D00620BDE8D0
:1014B000FC9F08274FF00B0BD9E7204600F046F8B9
:1014C000A8B13046761C18F800A0504600F058F835
:1014D00018B1ABF10100B84201D80620E7E7384661
:1014E0007F1C2C5438467F1C05F800A010E02146D4
:1014F00012A0FFF701FF08B10620D8E7612C04DB3A
:101500007A2C02DCA4F12000C4B238467F1C2C5493
:10151000ADE700BF08EB0600C9F800000FB90620D0
:10152000C5E72878E52801D105202870202C01DCAA
:10153000042000E00020E8720020B8E7222A2B2CCB
:101540003A3B3C3D3E3F5B5D7C7F000001460B48E3
:10155000007888420FDC09484078884201DB01208E
:10156000704706488078884205DC0448C078884285
:1015700001DB0120F4E70020F2E70000AA310008B7
:10158000014610480079884219DC0E4840798842AB
:1015900001DB012070470B488079884205DC09484F
:1015A000C079884201DB0120F4E70648007A8842CE
:1015B00005DC0448407A884201DB0120EAE700208C
:1015C000E8E70000AA3100084FF0E021096921F0A6
:1015D00004014FF0E0221161C21700EB5272C2F316
:1015E000C702074B1A701946097801EB4102C2EB9A
:1015F000C1114FF6FF7202EAC101024A1180704721
:10160000080000200A00002070B504464FF407705F
:1016100094FBF0F0C6B24FF4077094FBF0F100FBBE
:10162000114085B205E04FF4077000F027F8701EF6
:10163000C6B2002EF7D115B1284600F01FF870BDD4
:1016400001460D4A12784A434FF0E0235A610022C6
:101650009A6101221A6100BF4FF0E022106900F088
:1016600001021AB100F48032002AF5D000224FF0B6
:10167000E0231A619A6170470800002001460D4A74
:1016800012884A434FF0E0235A6100229A610122F6
:101690001A6100BF4FF0E022106900F001021AB198
:1016A00000F48032002AF5D000224FF0E0231A61C6
:1016B0009A6170470A0000202DE9F04104460E4669
:1016C000D4F800800021204600F059F90546EDB914
:1016D000002700BF4046A16901F004FB054605B1A3
:1016E00013E0E0690078E52802D0E069007820B9CD
:1016F000781C0746B04201D107E0002701212046AF
:1017000000F070F80546002DE4D000BF042D00D194
:1017100007252846BDE8F0812DE9F04704468946B3
:10172000204601F0B3FC10B10120BDE8F087494626
:101730002046FFF7EBFD0646E6624FF400720021FB
:1017400004F1300001F0C5FA04F13008012700254A
:1017500000E03D446089A84207D9721960783B4691
:10176000414600F0A1F90028F3D06089A84201D0D9
:101770000120DAE70020D8E72DE9F0410446276888
:101780000021204600F0FBF8054615B12846BDE8CB
:10179000F08100BF3846A16901F0A4FA054605B101
:1017A0001DE0E06906780EB9042518E0E069C07A0A
:1017B00000F03F00A071E069C07A00F0080038B97D
:1017C0000B2204F12001E06901F064FA00B906E09F
:1017D0000021204600F006F80546002DDAD000BFB3
:1017E0002846D4E72DE9F041044688462768206959
:1017F00000F12006B6F5001F01D30020A061A0690A
:1018000010B90420BDE8F081C6F30800002845D1D6
:10181000A069401CA061606938B93889B0EB561FD7
:101820003CD80020A0610420ECE77889401E00EA43
:10183000562098BB2046616901F0EDF80546012D60
:1018400001D80220DEE7681C08B90120DAE77869D0
:10185000A8421DD8B8F1000F03D10020A0610420D8
:10186000D0E720466169FFF75EFD05460DB9072008
:10187000C8E7012D01D10220C4E7681C08B9012086
:10188000C0E729463846FFF747FF08B10120B9E70E
:10189000656129463846FFF739FDA0612661C6F328
:1018A000080107F130000844E0610020AAE72DE9B3
:1018B000F047044688460425D4F8009027E04846BF
:1018C000A16901F00FFA054605B123E0E069067849
:1018D0000EB904251EE0E069C07A00F03F07A77149
:1018E000E52E0DD02E2E0BD00F2F09D027F0200083
:1018F000082801D1012000E00020404500D109E086
:1019000000212046FFF76EFF054605B102E0A06901
:101910000028D4D100BF0DB10020A0612846BDE849
:10192000F08770B50446266801212046FFF7C4FE03
:10193000054695B93046A16901F0D4F9054665B967
:1019400020220021E06901F0C4F90B2204F12001FA
:10195000E06901F0B1F90120F070284670BD70B562
:10196000044626683046A16901F0BCF9054625B950
:10197000E520E16908700120F070284670BD2DE96E
:10198000F04104460D462668B5F5001F02D205F069
:101990001F0010B10220BDE8F0812561A7681FB9C2
:1019A0003078032800DB776A47B93089B0EB551FE0
:1019B00001D80220EFE7706AA0611CE070894FEA4D
:1019C000402811E03946204601F025F80746781CEA
:1019D00008B90120DFE7022F02D37069B84201D8AD
:1019E0000220D8E7A5EB08054545EBD2394630463D
:1019F000FFF78CFCA0616761A06908B90220CAE703
:101A0000A06900EB5520A061C5F3080106F1300084
:101A10000844E0610020BEE770B5044600251CB90B
:101A2000FEF756FE054601E0012500BF00BF0DB1DF
:101A3000012070BD0020FCE703462BB909B9002046
:101A400001E0042000BF00E0012070472DE9F041D3
:101A500005460E4617461C464FF0000814B90420F0
:101A6000BDE8F08195B9224639463046FEF7F4FECE
:101A7000804607E0FEF72CFE224639463046FEF748
:101A8000EBFE8046B8F1000FF4D102E04FF0010800
:101A900000BF00BFB8F1000F01D10020E0E7012036
:101AA000DEE70146002070472DE9F04105460E466D
:101AB00017461C464FF0000814B90420BDE8F08119
:101AC00095B9224639463046FEF7BCFF804607E00E
:101AD000FEF7FEFD224639463046FEF7B3FF80464C
:101AE000B8F1000FF4D102E04FF0010800BF00BFD1
:101AF000B8F1000F01D10020E0E70120DEE7024647
:101B000091F8200008B900207047002081F82000DB
:101B10000878012801D00020F6E74878904201D0EB
:101B20000020F1E7087A08B10020EDE7487A08B113
:101B30000020E9E70120E7E731B56A4604210A20E1
:101B400000F01AF80A2000F027FA50B1072404E048
:101B50002D020548005D0543641E042CF8D228467A
:101B600038BD0020FCE700004842002010B50446C4
:101B70002046FFF775FB10BD37B582B00546144609
:101B800000200190C020FFF7F1FF0020FFF7EEFFDB
:101B90002846FFF7EBFF022103A801F0FDF904211D
:101BA00001A801F0F9F9BDF80C10204601F0F4F994
:101BB000C020FFF7DBFF05B030BDFFB585B006469E
:101BC00014461D460E9F04F1100080B204900020C0
:101BD000009001900290039000940195C020FFF7BF
:101BE000C5FF0020FFF7C2FF3046FFF7BFFF02210D
:101BF00004A801F0D1F9042106A801F0CDF91021C3
:101C0000684601F0C9F92146384601F0C5F9C020FF
:101C1000FFF7ACFF09B0F0BD2DE9FF4104460D46CA
:101C200017461E4600940195029703966A461021B6
:101C30000220FFF7A1FF022000F0AEF904B0BDE8DA
:101C4000F081F8B504460E461546A1B2284600F0CC
:101C5000CFF90746F3B2A2B2394603200095FFF749
:101C6000ACFF032000F098F9F8BD2DE9FF410446D0
:101C70000D4617461E4600940195029703966A4644
:101C800010210520FFF778FF052000F085F904B04A
:101C9000BDE8F081F8B504460E461546A1B22846C7
:101CA00000F0A6F90746F3B2A2B239460720009524
:101CB000FFF783FF072000F06FF9F8BD2DE9F0472B
:101CC0000646894614461F4600253019401EB0FBC3
:101CD000F4F01FFA80F800BF0BE03A462946204690
:101CE000FFF7D8FF10B90020BDE8F0872744681C33
:101CF00085B2A8F10100A842EFDC04FB15603A466A
:101D00002946FFF7C7FFEFE77CB504460D46009470
:101D100001956A4608210620FFF72EFF062000F0F5
:101D20003BF97CBD10B58AB0202102A8FEF7D4FA99
:101D3000094800680190042404E0552001A90855D1
:101D4000601CC4B2242CF8DB01AA24210820FFF770
:101D500013FF0AB010BD0000F05300087FB5044621
:101D60000D46002000900190029003900094019590
:101D70006A4610211320FFF7FFFE132000F00CF934
:101D800004B070BD2DE9F04387B004460D461646F9
:101D90001F46DDE90E890194029503960497CDF85C
:101DA0001480CDF8189001AA18210B20FFF7E4FE4B
:101DB0000B2000F0F1F807B0BDE8F0832DE9F04307
:101DC00091B0002500BFFFF7ADFF6D1C6420FFF749
:101DD0001BFC322D03D9002011B0BDE8F083464929
:101DE0000820FFF78CFE0028EDD041F63C76022754
:101DF0004FF4C058414B424639463046FFF735FF55
:101E00003F4B424639463046FFF758FF4FF4407685
:101E1000012700BF3B4B424639463046FFF725FFBE
:101E2000394B424639463046FFF748FF3349091DD2
:101E30000020FFF769FF1C2234490AA8FEF71AFAAE
:101E4000142232491C3105A8FEF714FA14222F4936
:101E500030316846FEF70EFA002407E00AA951F86F
:101E60002400FFF769FE8146601CC4B2072CF5D33D
:101E7000002408E05DF8241005AA52F8240000F0C0
:101E8000A1F8601CC4B2052CF4D32049443103C925
:101E9000CDE90F011D494C3103C9CDE90D011B49A5
:101EA000543103C9CDE90B01002407E00FA951F813
:101EB0002400FFF741FE8146601CC4B2022CF5D31A
:101EC000002409E00BAA52F824100DAA52F82400AD
:101ED00000F078F8601CC4B2022CF3D34FF6FF7008
:101EE0004FF480710B01421CCDE900100904002061
:101EF000FFF748FF70E70000484200200000104054
:101F0000B4310008A4ABFF3FF050000804540008AF
:101F10002DE9F043ADF50B7D06460D464FF0000967
:101F20000122314601A800F0AFF820B100200DF5E4
:101F30000B7DBDE8F083049C04F58040401E870BB8
:101F40004FF480482B46424639462046FFF764FE50
:101F500011E06B464FF480420E4901A800F086F96B
:101F600049464A1C02F0FF090A4A0098FFF769FE39
:101F700008B90020DBE704990698884201D10120C6
:101F800000E000200028E4D021462846FFF7E6FEC6
:101F9000CDE700004802002070B50546002407E0A8
:101FA0006420FFF731FB641C322C01D9002070BD86
:101FB00003492846FFF7A3FD0028F1D00120F6E7EA
:101FC000484200207FB504460D46084B0FCB8DE8F4
:101FD0000F00009401956A4610210920FFF7CCFDFF
:101FE0000920FFF7D9FF04B070BD0000F4530008CA
:101FF00010B503460022EF2409B9002010BD0022CD
:1020000003E0985C4440501C82B28A42F9DB2046CF
:10201000F4E738B50546284600F083FA04463CB993
:102020006946284601F09EF804460CB90020286055
:10203000204638BDF7B582B016460398019001A836
:1020400000F05EFD0546002D02DA0B2005B0F0BD64
:102050000C4850F825400CB100202070029810B1B7
:102060000020029908700749029841F825000EB92E
:102070000020EBE7002202A903A800F0F7FA0746C8
:102080003846E3E7000000202DE9F74F8EB0044604
:1020900016461CB9092011B0BDE8F08F06F03F06C6
:1020A000324602A90FA800F0E1FA0546002D7DD1C5
:1020B0000298039003A80F9900F05EFC05462DB925
:1020C0009DF8370000F0800000B1062506F01C00E6
:1020D000002850D045B1042D03D103A8FFF721FCFF
:1020E000054646F008060AE09DF8120000F01100CF
:1020F00008B1072503E006F0040000B10825002D13
:102100004AD106F00800002846D00A99029800F04B
:102110001EFD814600F0F0FC00900A9901F10E00CE
:10212000009900F058FF20200A99C87200220A99ED
:10213000029800F03EFF0A9901F11C00002100F016
:102140004AFF01200299C870B9F1000F24D002980B
:10215000C06A01900022494603A800F079FE0546B6
:10216000D5B9DDE9011000F0BDFD0546A9F101007A
:102170000299C86010E07DB99DF8120000F01000CF
:1021800008B1042508E006F0020028B19DF812000D
:1021900000F0010000B107255DB906F0080008B1A4
:1021A00046F040060298C06A206200E04BE00A98C0
:1021B0006062002D55D10A99029800F0C8FCA06019
:1021C0000A9901F11C0000F0D5FCE0600298206043
:1021D0000298C088A080267400206074E06160616D
:1021E0004FF40072002104F1280000F072FD06F0A7
:1021F000200040B3E06830B3E06860610298408935
:102200004FEA402AA768D4F80C800CE039462046F3
:1022100000F001FC0746012F00D80225781C00B908
:102220000125A8EB0A080DB9D045EFD8A76155B92B
:10223000C8F3080038B139460298FFF767F8B0F1E3
:10224000000B01D102250CE00BEB5820E061E269A4
:1022500002994878012304F12801FFF7F7FB00B148
:1022600001250DB100202060284614E72DE9FF4F1D
:1022700085B0044615469A46DDF818B00020CAF825
:10228000000003A9204600F06DFF0490049810B9E7
:10229000607C049018B1049809B0BDE8F08F207CF0
:1022A00000F0010008B90720F6E76169E068401A0C
:1022B00001900198854200D9019DA0E0A08AC0F359
:1022C000080000287ED103984089401E616900EA19
:1022D0005129B9F1000F17D1606910B9A0680290B7
:1022E00004E02046A16900F096FB029002980228C3
:1022F00002D202206074CFE70298401C10B901207E
:102300006074C9E70298A061A1690398FEF7FEFF17
:10231000064616B902206074BEE74E444FEA5528BF
:10232000B8F1000F29D009EB0800039949898842C8
:1023300003D903984089A0EB0908039948784346DC
:1023400032465946FFF782FB10B101206074A3E7C3
:10235000207C00F0800068B1E069801B404509D214
:10236000E169891B0BEB41204FF4007204F1280155
:1023700000F0A2FC4FEA482737E0E069B04220D0E5
:10238000207C00F0800078B1E2690399487801234D
:1023900004F12801FFF788FB10B1012060747BE78E
:1023A000207C00F07F002074039948780123324696
:1023B00004F12801FFF74AFB18B1012060746BE7B4
:1023C00000E0E661A08AC0F30800C0F50077AF42E4
:1023D00000D92F46A08AC0F3080204F12800111882
:1023E0003A46584600F068FC00BFED1BDAF80000E2
:1023F0003844CAF80000BB44606938446061002D6D
:102400007FF45CAF002047E7F3B59FB020A800F051
:1024100077FB022208A91FA800F028F90446002C27
:102420007CD10898149014A81F9900F0A5FA0446CE
:102430002CB99DF87B0000F0A00000B10624002C10
:102440006CD1202268461B9900F036FC2C2214A97E
:1024500009A800F031FC09A8209900F08DFA044683
:102460005CB916990B98884205D118990D98884245
:1024700001D1042000E008200446042C44D109A81E
:10248000FFF74FFA0446002C3ED1109D13220DF1A8
:102490000D0105F10D0000F00FFC9DF80B00E87236
:1024A000E87A00F0100018B9E87A40F02000E872ED
:1024B00001200899C870E87A00F0100020B30B9949
:1024C0001698884220D02946089800F040FB07461D
:1024D00039460898FEF71AFF06460EB9022413E0A3
:1024E0003146089800F0FEFB0446089800F15005BC
:1024F00054B968782E2807D129460B9A089800F01D
:1025000058FD01200899C87044B914A8FFF727FAAC
:1025100004461CB9089800F071FD0446204621B01D
:10252000F0BDF8B504466946204600F01BFE06469D
:10253000002E44D1207C00F0400000283FD0207CB9
:1025400000F0800070B1E26900994878012304F13D
:102550002801FFF7A9FA08B10120F8BD207C00F09E
:102560007F00207400F0C8FA0746216A009800F046
:10257000B9FB06461EBB656AE87A40F02000E872A7
:102580002946A268206800F014FD05F11C00E168EE
:1025900000F021FD394605F1160000F01CFD002178
:1025A00005F1120000F023FD01200099C870009889
:1025B00000F024FD0646207C00F0BF002074304669
:1025C000CBE731B598B00025022201A918A800F088
:1025D0004DF80446002C46D101980D900DA818998D
:1025E00000F0CAF9044600BF002C3CD19DF85F0002
:1025F00000F0800008B1062405E09DF83A0000F0E4
:10260000010000B10724E4B91499019800F09FFA81
:1026100005469DF83A0000F0100090B10198029034
:102620000495002102A8FFF7AAF904464CB900213D
:1026300002A8FFF73CF9044604B90724042C00D192
:10264000002484B90DA8FFF78AF9044634B92DB1E6
:10265000002229460DA800F0FBFB04461CB9019896
:1026600000F0CCFC0446204619B030BD2DE9F74FF0
:102670008AB000210B9801600A9800F041FA089096
:102680000898002803DA0B200DB0BDE8F08FB5499B
:10269000089851F820400CB90C20F5E70B9804601D
:1026A0000C9800F0FE000C90207878B16078FFF76D
:1026B000F8F9814609F0010040B90C9820B109F001
:1026C000040008B10A20DFE70020DDE700202070C9
:1026D000089860706078FFF79FF9814609F0010063
:1026E00008B10320D0E70C9820B109F0040008B12C
:1026F0000A20C9E7002739462046FEF7BFFD0546F8
:10270000022D01D02EDA2DE0002614E04FF4DF7008
:1027100000EB061104F13000084409900998007993
:1027200020B10998083000F025FA00E0002002A945
:1027300041F82600761C042EE8D3002606B1761E4A
:1027400000BF02A850F8267027B139462046FEF790
:1027500095FD00E003200546022D03DB701C0646B4
:102760000428EED3042D01D101208DE7022D01DBD9
:102770000D2089E704F13B0000F008FAB0F5007F76
:1027800001D00D2080E704F1460000F0FFF98046FB
:10279000B8F1000F04D104F1540000F0EBF98046C9
:1027A000C4F818804020005DA070A078012804D0F3
:1027B000A078022801D00D2066E7A07808FB00F879
:1027C0003D20005D6081608918B16089411E08402C
:1027D00008B10D2058E704F1410000F0D7F920813D
:1027E000207A00F00F0008B10D204DE704F14300FE
:1027F00000F0CCF98346BBF1000F04D104F1500086
:1028000000F0B8F9834604F13E0000F0BFF90190F2
:10281000019808B90D2037E701984044218900EB61
:10282000111007900798834501D20D202CE70798D7
:10283000ABEB00006189B0FBF1FABAF1000F01D1F6
:102840000D2021E700254848824500D803254FF692
:10285000F570824500D8022540F6F570824500D813
:1028600001250DB90D200FE70AF102006061E76153
:1028700001983844206207983844A062032D13D190
:1028800004F15A0000F082F908B10D20FCE620891D
:1028900008B10D20F8E604F15C0000F06BF960620D
:1028A00060698000069014E0208908B90D20EBE6ED
:1028B000206A40446062022D02D16069400007E056
:1028C000207D00F00100616901EB410100EB510046
:1028D0000690A169069800F2FF10B1EB502F01D2CB
:1028E0000D20D1E64FF0FF302061E06080202071A4
:1028F000032D2CD104F1600000F048F9012826D105
:10290000791C204600F0EEF908BB0020207104F28B
:102910002E2000F03BF94AF65521884217D104F1E8
:10292000300000F027F91149884210D104F50570F4
:1029300000F020F90E49884209D104F5067000F034
:1029400019F9206104F5077000F014F9E0602570B2
:1029500008480088401C80B206490880E0800020BA
:1029600092E6000000000020F5FFFF0F5252614187
:1029700072724161040000202DE9F341044627688A
:1029800002E00198401C0190019800782F28F8D0AF
:10299000019800785C28F4D00020A06001980078AD
:1029A000202808D280212B20015500212046FEF747
:1029B000E6FF05462CE000BF01A92046FEF744FDD6
:1029C000054605B123E02046FEF7D6FE05462B203E
:1029D000065D3DB1042D04D100BF06F0040000B92E
:1029E000052514E006F0040000B110E0A07900F025
:1029F000100008B905250AE0208AC0F3080207F193
:102A000030001118384600F0A2F8A060D4E700BFEB
:102A10002846BDE8FC812DE9F04781460C46D9F8EF
:102A20000050022C02D36869A04202D84FF001087E
:102A30005EE04FF0FF382878012804D002282CD01F
:102A4000032851D13CE0264606EB5606286A00EBE7
:102A50005621284600F046F900B148E03046761C81
:102A6000C0F3080105F13000475C286A00EB5621ED
:102A7000284600F037F900B139E0C6F3080105F146
:102A80003000405C47EA002704F0010008B1380933
:102A900001E0C7F30B00804629E0286A00EB14210F
:102AA000284600F01FF900B121E040F2FF1101EAD1
:102AB000440205F13001501800F068F8804616E035
:102AC000286A00EBD411284600F00CF900B10EE0A2
:102AD00040F2FF1101EA840205F13001501800F0C4
:102AE00049F820F0704802E04FF0010800BF00BF35
:102AF0004046BDE8F087000000487047C070D94CE0
:102B000070B504464FF0FF3026683146324601B9B1
:102B100070BD00BF12F8013B212B01D33A2BF9D134
:102B20003A2B11D101250E78302E08DB0E78392E84
:102B300005DC8E1C964202D10E78A6F13005012DDF
:102B400001DA28462260E3E7002000BFE0E770B525
:102B500005460C4604F11A0000F018F806462878DD
:102B6000032805D104F1140000F010F846EA0046ED
:102B7000304670BD0146C8788A7842EA00204A781B
:102B800042EA00200A7842EA00207047014648786D
:102B90000A7842EA002070470723022208214FF4F6
:102BA000A870FEF795F9A820FEF70EFDFDF700FDD1
:102BB000012227A12748FFF73DFA00283AD100F06B
:102BC000A7F9044604F0080098B142F2CF0140F2A0
:102BD0008F10FEF763FA00F07FFA1FA0FFF7F1FCF9
:102BE0001DA121A0FFF710FCFEF72CFA0020FDF735
:102BF000F5FC04F00400E0B142F2CF0140F2DB50FA
:102C0000FEF74CFAFDF7E8FBFFF7D8F850B10021CA
:102C100019A0FFF77DF91BA0FFF7D3FC19A116A09F
:102C2000FFF7F2FBFDF7BCFBFEF70CFA0020FDF707
:102C3000D5FC00BF1648406800F07F40B0F1006F3F
:102C400001D100F053F90120FDF7C8FC00BFFEE7F9
:102C5000303A0000180000204649524D5741524575
:102C60002E435552000000006669726D77617265EF
:102C70002E62696E0000000065737033642E626915
:102C80006E00000045535033442E4355520000005F
:102C900000800008F0B503461D460C46002000BF2A
:102CA00015F8017B14F801CBA7EB0C00561E321E61
:102CB00001D00028F4D0F0BD30B503460C463AB13F
:102CC00000BF14F8015B03F8015B551E2A1EF8D102
:102CD00030BD10B5034600BF03F8011B541E221E71
:102CE000FAD110BD70B504460D460026E06AA84230
:102CF00010D0204600F0CAF906465EB9607801237C
:102D00002A4604F13001FEF7A1FE10B14FF0FF3565
:102D10000126E562304670BD2DE9F04704460D46B8
:102D200016464FF00209022D74D36069A84271D98A
:102D30002078012804D0022849D003280DD15EE074
:102D40002F4607EB5707206A00EB57212046FFF775
:102D5000C9FF8146B9F1000F00D075E038467F1CED
:102D6000C0F3080104F1300001EB000805F0010098
:102D700028B1F1B298F8000061F31F1000E030466E
:102D800088F800000120E070206A00EB57212046FF
:102D9000FFF7A8FF8146B9F1000F00D054E0C7F358
:102DA000080104F1300001EB000805F0010010B14A
:102DB000C6F3071006E098F8000000F0F000C6F334
:102DC0000321084388F800000120E0703CE0206AFD
:102DD00000EB15212046FFF785FF8146B9F1000F72
:102DE00000D031E0B1B240F2FF1202EA450304F133
:102DF0003002981800F0FBF80120E07024E0206A0F
:102E000000EBD5112046FFF76DFF8146B9F1000FA9
:102E100001D019E019E040F2FF1101EA850204F146
:102E200030015018FFF7A6FE66F31B00064640F27D
:102E3000FF1101EA850204F130015018314600F01B
:102E4000CAF80120E07000BF00BF4846BDE8F08727
:102E50002DE9F04781460E4617464FF00008D9F895
:102E60000040022E02D36069B04202D80220BDE8C1
:102E7000F08767B100BF4FF0FF3239462046FFF7B9
:102E80004BFF8046B8F1000F01D04046EFE700BF8E
:102E900031464846FFF7BFFD054605B922E0012D42
:102EA00001D10220E3E7681C08B90120DFE7002216
:102EB00031462046FFF730FF8046B8F1000F01D0C1
:102EC0004046D4E7D4E90410801E814206D220692E
:102ED000401C2061207940F0010020712E4660697D
:102EE000B042D5D800BF0020C1E7000010B50648A9
:102EF00040680649086004490868FDF795F90348E9
:102F00000068804710BD000000800008100000200D
:102F100010B5ADF50A7D002400220CA16846FFF72C
:102F2000B3F820B944F008046846FFF772F80022AD
:102F30000AA16846FFF7A8F820B944F004046846DF
:102F4000FFF767F820460DF50A7D10BD6669726DC2
:102F5000776172652E62696E0000000065737033E0
:102F6000642E62696E00000010B50446C02C06D1C4
:102F7000DB20FEF7FBFDDC20FEF7F8FD0BE0DB2C91
:102F800006D1DB20FEF7F2FDDD20FEF7EFFD02E0CB
:102F90002046FEF7EBFD10BD70B505460E46002439
:102FA00004E0285DFFF7E0FF601C84B2B442F8DB68
:102FB00070BD70B506460C461546A9B204F11A005C
:102FC00000F015F83078032804D1290C04F114001E
:102FD00000F00DF870BD00F8011B090A00F8011B94
:102FE000090A00F8011B090A00F8011B704700F8E4
:102FF000011B091200F8011B7047000070B5044660
:10300000204600F043F80546002D38D120780328EB
:103010002ED1207901282BD14202002104F1300069
:10302000FFF757FE4AF6552104F22E20FFF7DFFF87
:10303000144904F13000FFF7CEFF134904F5057081
:10304000FFF7C9FF04F506702169FFF7C4FF04F517
:103050000770E168FFF7BFFFE069401CE06260783D
:10306000012304F13001E26AFEF71EFD0020207109
:10307000607800221146FEF7DFFC00B101252846EA
:1030800070BD0000525261417272416170B50446D8
:103090000025E078E8B16078012304F13001E26AAC
:1030A000FEF702FDA0B90020E070216AE06A401A34
:1030B000A16988420DD2A07802280AD1A369E16AE9
:1030C000CA186078012304F13001FEF7EDFC00E03E
:1030D0000125284670BD000010B5ADF50C7D00241B
:1030E00001221AA102A8FEF7CFFF18B100200DF5AA
:1030F0000C7D10BD194905980844B0F1016F01D34A
:103100000020F4E712E001AB4FF40062144902A87A
:10311000FFF7ACF800B112E00199C91C8A080F4909
:1031200060180F49FDF758FE019804440599079867
:10313000884201D1012000E000200028E3D000BF38
:1031400002A8FEF766FF0120D1E700006669726DF4
:10315000776172652E62696E0000000000800008D1
:103160006C42002070B504460D4609268CB12068DB
:1031700078B12068007860B1A0882168C988884249
:1031800007D121684878FEF78CFC00F0010000B9F7
:1031900000260EB9206800E000202860304670BD8F
:1031A0004FF04070E1EE100A7047819FE0FC407ED6
:1031B00080FC0000A810004001FFFF464500000011
:1031C0000080FE3F4F484149A4ABFF3F0CABFE3FA0
:1031D00080800000C41910400C0000600000000155
:1031E0000000010000100000FFFF00008C800000C4
:1031F000104000000000FFFF004000000080FE3F84
:103200009C2BFF3FA02BFF3F102700001400006005
:10321000FFFF0F00A4ABFF3FA4ABFF3FA42BFF3F7A
:10322000B4ABFF3F0080000020290000F88DFE3F76
:103230005880FE3FA8ABFF3F98AEFF3F989BFE3FF4
:1032400084AEFF3F801B0000A00D000000080000BE
:1032500020090000500E000050120000ACABFF3FF0
:10326000B0ABFF3F1F2900003CA9FE3F08AEFF3F67
:103270008CADFF3F800B00000CADFF3F8CACFF3FDF
:10328000B0150000F1FF000000ABFE3F00A9FE3FBB
:10329000BC0F0040880F0040A80F0040583F00407E
:1032A0002C4C0040303B004078480040004A004031
:1032B000B4490040CC2E00401CE20040D839004008
:1032C00068E2004048DF004090E100404C260040AA
:1032D0008449004021BCFF92A1109011C0226123BB
:1032E00022A000026143C26142D26141E26140F228
:1032F000613F01E7FFC0000021B2FF31B3FF0C04C2
:103300000601000049024B223732F822A08C2A2104
:103310000C4305B10121AEFFC1ADFF31AEFF2A2C38
:10332000C02000C90242A00022A00501DAFFC000AF
:103330000021A9FF32A101C020004802303420C082
:10334000200039022C0201D4FFC0000001D4FFC0CC
:10335000000031A2FF41A2FF51A3FF71A3FF0C02A5
:1033600062A10001CFFFC0000031A0FF2198FF3A09
:1033700032C0200028031672FFC02000C8030C02D0
:10338000C0200029030C13324184320C0122514326
:10339000324185226122669318220C03320C02808E
:1033A0002211302220664209282CC0200028022247
:1033B000612222A0C001BBFFC0000022A084102215
:1033C0008032A00845A301F20C03220C0280FF11F9
:1033D00020FF202187FFF7B217059D0122A0EE01F3
:1033E000B1FFC0000022A0C001AFFFC00000C6DDD9
:1033F000FF320C010CD2279302C68500373251668A
:103400006302869E00F67323663302465D00F64330
:103410000A662302864C00069D00000066430246B1
:103420007100665302C68300C69800000C92279371
:1034300002067A00373208667302C680008693005F
:103440006693024678000CB2279302466D00468FC1
:10345000001C32279302C6390037322866B3028631
:1034600040001C0237320A0CF2279302062E000697
:1034700087001C122793024642001C222793024613
:10348000590046820022A0D127132C37320922A0EE
:10349000D0271318C67D000022A0D22793028625CC
:1034A0000022A0D32793028692054678000C1DCCFB
:1034B0001FC65C0506740000668F02465D05067136
:1034C00000000179FFC00000EAED9C12866D00004B
:1034D000202C410176FFC0000056921AD2DDF0D0B8
:1034E0002EC08C4D2030F45653FEDAF2E13DFF063B
:1034F000040000002020F5016EFFC00000565218A5
:10350000E0DDC0D02FC0D73EEADAE20604000000BA
:10351000202C410166FFC00000569216D2DDF0D08B
:103520002EC056ADFEC657000C0ED2A0C0268F028C
:10353000465800866205000066BF02866005063BAD
:103540000066BF02863F05C64E000C1D26BF024620
:103550004D00384C2129FF0C0ED2A0C22713028641
:103560004C00463B050C1466BF12384C2123FF0C5F
:103570000ED2A0C2271302864600C63A05DD0446D5
:1035800041000000211EFF0C0E320200D2A0C6E74F
:103590009302C63F00382CD852F2CFF0F033C0224D
:1035A000A0C030D29332CC1822A0EF460200EA43EA
:1035B0004204001BEE402230F72EF2520C05620C42
:1035C00004420C06805511320C076055200044114E
:1035D0005044208033014033203022C032A0C10C3F
:1035E0000E20D393462B00002105FFD2A0C6320245
:1035F000001633093832D2A0C856B308324200D878
:1036000052C620001C82279F024620050C0E0C1D6E
:1036100046200000664F02462405061A0066BF02D7
:10362000062505C601000000664F028624050C0E23
:10363000D2A0C0861700000066BF02462205061110
:103640000041EFFEF2CFF07804CC37D2A0C6FC6F79
:1036500031EDFED2A0C96803F7362CF02014D2A0B9
:10366000C092CC188C928607002A8988084B228940
:10367000052A572086C0F732EF59048903460C0506
:10368000668F028614050C1D0C0EC601000000E2B8
:10369000A000D2A0FFD02074057301E02074C57291
:1036A0000122A0C00100FFC0000056BDCB220C01CA
:1036B00032A00F37123127331466420206D0046657
:1036C000620206D5042632024627FF461A001C2352
:1036D00037920246CA0432A0D23712491C1337125D
:1036E000020621FFC61A000021C8FE01F2FEC0003A
:1036F0000021C6FEC02000380221C5FE2033102262
:103700002C03202382322C0201ECFEC000003D027B
:103710002D0D01EAFEC0000022A3E801E6FEC00074
:10372000000611FF0000222C02322C03422C045808
:103730005C857501460CFF00320C03220C028033BD
:103740001120332032C3F022CC18455A010606FF5F
:10375000000000220C03320C0280221130222022B1
:10376000C2F0F2CC1822612B0C1E86930421A9FE14
:1037700031C6FEB22200D1A8FE62A003222302724B
:10378000212B626125B0DDC02737040C188261252A
:10379000B26135054C01B2213571A0FE92212B702A
:1037A0004BC0DA440B84DA6B62612982612C405889
:1037B000109AAF8C15C66C0477BB02C66C0498ECEB
:1037C000722C10822C15286C926126726124826101
:1037D0002A3C53D87CE22C1468FC27B30206190457
:1037E0003190FE3022A02802A002002184FE0C0E9F
:1037F0000C13E992E98239D239A2A73F39E2612458
:103800006D0EE26126E0DE209221250C2330391076
:10381000217BFE9C930C1449625D0BCD0F860A043C
:10382000A7BFE4320F002175FE1BCF3982C6050009
:103830003982CD0F060400320F001BCF3982E261BE
:10384000246D0EE26126DD0EA73C29460000CD0F57
:103850007221250C255037102169FE9C1359625D99
:103860000B462E0000A7BFE5320F002164FE1BCFE0
:103870003992460200320C002161FE1BCC399221A4
:103880005FFE1CF3588268928025116A22426130E3
:1038900052613462612FA26133B261350189FEC089
:1038A00000000C1342213052213462212FA2213317
:1038B000B22135CCE22C02206610CC765020342286
:1038C000C2F82036835054418B550C127156FE00BD
:1038D00015400062A167370F0005404040910C067B
:1038E0004062833066209C460C16460000CD0F21B6
:1038F00043FE2C4339625D0B46D3030000005D0B91
:10390000F63D40A73C29C600005D0BCD0F82212566
:103910000C222028109CC20C332138FE39620C1472
:10392000C6C903A7BFE21BCF220F005D0B06010033
:10393000220C001BCC001D400022A120EE208BDDBC
:1039400006EFFF00712EFEE0202429B72021412937
:10395000C7E0E341D2CDFD561223D0202427BD3B42
:10396000A73C24C600005D0BCD0F9221250C222020
:1039700029100C535612FA860400A7BFE81BCF2269
:103980000F005D0B46010000220C001BCC001D4007
:103990000022A120EE208BDD86EFFF00D020240046
:1039A0000240E0E0917C8220DD100C06164D05F609
:1039B0008D39A73C23C600005D0BCD0F7221250C6D
:1039C000222027100C6356F2F4460400A7BFE81B20
:1039D000CF220F005D0B060100220C001BCC001D46
:1039E000400022A120EE208BDD86F0FF2104FE3175
:1039F0000EFE6A223A22E24218D2CDF8E0E84106F1
:103A000016000000A73C41C600005D0BCD0F8221CF
:103A1000250C2220281031F9FD9CF20C722963C676
:103A2000BEFFA7BFE421F5FD4100FE320F006A2270
:103A30004A221BCF3242185D0B86070041FBFD6A0C
:103A4000334A3322431846040021ECFD41F7FD328E
:103A50000C006A224A223242181BCC1B66F6460230
:103A600006D2FF910AFE62093922093880661120C8
:103A7000662022093B32093A80221130222031DAB5
:103A8000FD302230279606861C005D0BCD0F2C736F
:103A900046E20000F68D3CA73C25C600005D0BCD3C
:103AA0000F7221250C222027103C3356A2E6C604B3
:103AB000000000A7BFE61BCF220F005D0B06010030
:103AC000220C001BCC001D400022A120EE208BDD2B
:103AD00006F0FF00E08074826126E0E841D2CDF874
:103AE000460200003C4346F6025D0BCD0F922129B1
:103AF00097B5F07221260B667245001B550C020C1F
:103B0000134D02D04393602393278487861D0000C2
:103B10000C9346EB025D0BCD0F82212987B5F00691
:103B200007009221250C222C63270902467AFFC642
:103B300000005D0BCD0F2C8346B8005D0BCD0FA7A9
:103B4000BCDF7221295027C0C07AC077B2017D0244
:103B500077B6017D062D053D0C4D0752613462613B
:103B60002F726132A26133B2613501D6FDC000000F
:103B700072213252213462212FB22135A221337AAF
:103B8000CC7A557066C056F6F8C6EC0266320D4621
:103B9000010000005D0BCD0F0CA3C69F0026120292
:103BA00086210022A1202267112C0421A0FD42675A
:103BB0001232A00552613462612F726132A2613308
:103BC000B2613501C1FDC0000072213222A0E82A95
:103BD000773197FDB22135A2213362212F52213452
:103BE0002D0742A0084243001B337793F732C2707F
:103BF0008D030C944242001B223792F722A100321F
:103C0000A1180C74C60100004248001B221B883713
:103C100092F532AEE83A880C8732A11F2A487244E6
:103C2000001B2227B3F5066D01000C062182FD6AF8
:103C30002222020027BD3BA73C25C600005D0BCD1C
:103C40000F8221250C222028100CB356A2CCC604CA
:103C5000000000A7BFE61BCF220F005D0B0601008E
:103C6000220C001BCC001D400022A120EE208BDD89
:103C700006EEFF2170FD0C136A22220200416EFD48
:103C80000012400033A14046A00B33E0331020DD8A
:103C9000C0000240E0E09148042158FD4A3320264C
:103CA000A03262111B66B636822164FD0C0342A16C
:103CB00020526134A26133B261350183FDC000003E
:103CC0000C06522134A22133B221354618000000DF
:103CD000F63D3CA73C25C600005D0BCD0F9221258B
:103CE0000C222029100CE356E2C2C604000000A7F3
:103CF000BFE61BCF220F005D0B060100220C001B4C
:103D0000CC001D400022A120EE208BDD06F0FF003C
:103D1000214CFD413AFD6A22220200E030242A248F
:103D20004149FDD2CDFD4A22324218E0E3411B66F3
:103D30002133FD3222133736961C333262130627A5
:103D4000017141FD0C0370728242A0407078807254
:103D5000C75822C14452613462612F826131A2612D
:103D600033B261357261270158FDC000007221270E
:103D70004137FD22A1202A2732A0000153FDC000B7
:103D8000002133FD9221270C032A2942A480014EF1
:103D9000FDC0000082213152213428C862212F80C9
:103DA00082A082281122612D82612E0C02A2213371
:103DB000B2213586050000007221272A3732030020
:103DC0001B221033A04223111B4442631182212E77
:103DD0008792E40C02291129014D020C13E0831192
:103DE00072C1448A9798098A819A22F022111B3362
:103DF00029189A4466B3E582A001F6240282A00045
:103E000031FDFC0C093A220C132093938099107C0D
:103E1000F216F910C600005D0BCD0F2C3321F7FC14
:103E20003962C688028221279A3882030016180F49
:103E30001038A048030C074261361B4449037261E5
:103E400038703720F0331132613732213642213752
:103E500030300472213632612840332042213870DC
:103E600071411B447261364261384798D60CA7876E
:103E70003730704811904420004411404031426175
:103E8000280C140018400084A1460300422127405A
:103E900073904221288A3342579072A3FF37B7EBC1
:103EA000861F00422127307094407790429790CC33
:103EB000642257904D0222C2FE3039410C07C60BD6
:103EC000003221373070047044C07CF740473072B4
:103ED000212770449042D409426128429410CCA416
:103EE00042212822541020422022C2FE7221361B79
:103EF000777261367221363031413261377078C065
:103F00000CB33797BB7221377CF87030043034C063
:103F100030383042A4907221274033807033909221
:103F200053001B9982212E871902C6BDFF92212DB5
:103F300026290286A700868D000CE2D7B2028633BE
:103F400000C02AC0A6220286290021C2FCE03094CB
:103F500071ABFC2A2370229042120C0044114030B5
:103F6000319693014049310C1347BD010C030C02FB
:103F70000C17402793370202062500860B000CA27F
:103F8000D7B22991B5FC7CF8000240E0409130386E
:103F9000C04040044A339A3370339032930CD6E3D6
:103FA000061B422B22273D042D0486F6FFA73C2446
:103FB000060100005D0BCD0F7221250C2220271079
:103FC0001C03563295460400A7BFE81BCF220F0002
:103FD0005D0B060100220C001BCC001D400022A13D
:103FE00020EE208BDD0CE2D7320206D7FFC6070099
:103FF00000320C00420C018B2D001D400033A1004B
:1040000012400024A120232020EE202BCCD2CD1062
:104010002191FCE030947179FC2A237022903212B5
:104020000C00331130203196920030393120208439
:10403000060A00009189FC0CA47CF81B34000440A3
:10404000E040912028C04040044A229A22702290E9
:1040500022920CD652004D03C6F7FF002261268241
:1040600021260CF2000340E0E09130DDC0873211E0
:104070002163FC316DFC6A223A2282421C1B66C617
:104080003B009221260C020C1342C9F07D024073C2
:10409000836032933707141C086D02826126460143
:1040A0000000005D0BCD0F1C13065CFF216CFC9221
:1040B00021269A2222C2F022020022612427BD3F3B
:1040C000A73C24C600005D0BCD0F7221250C2220D9
:1040D00027101C23561284C6040000A7BFE71BCF7D
:1040E000220F005D0B460100220C00C2CC01822190
:1040F00024001D400022A1D2CD0820EE20873DBF24
:104100002158FC8221269221240C178A2200194072
:104110000077A122C2F02202000B77E077102A7705
:104120002142FC4136FC2A264A22000940E0E09167
:1041300090DDC022C21C0C0366B809314AFC6A44F7
:104140003A4432041C4D0752613462612F7261326D
:10415000A26133B26135015CFCC0000062212F72A4
:1041600021325221347A66A22133B2213546000031
:104170000C067122FC4227112227122A2427B6029C
:10418000466DFF6792060602005D0BCD0F1C53863D
:1041900022FF3135FC2126FC52613462612FA2617D
:1041A00033B261357261320147FCC00000722132C6
:1041B000211EFC3227114227122A337A33211BFC9D
:1041C00032C31C0140FCC00000B22135A221336281
:1041D000212F5221342109FC38C20B3339C2810707
:1041E000FC28C8D6A2B586530100C02AC0E6420703
:1041F0000CE3D7B311C635009221295039C0A6234C
:1042000002064F0006FAFFA62202C6280071FBFB39
:10421000E020947022904212BC004411403031964C
:1042200093014049310C1347BD010C030C020C17DC
:10423000402793370202862500C60B000CA2D7B296
:104240002A7CF892A4B0000240E040913038C0408F
:1042500040044A339A3370339032930CD603071BD1
:10426000422B22273D052D0486F6FF00A73C25C6DC
:1042700000005D0BCD0F7221250C222027101C732E
:104280008C12C6A4FD460400A7BFE61BCF220F0078
:104290005D0B060100220C001BCC001D400022A17A
:1042A00020EE208BDD0CE2D73202C6D7FFC6070016
:1042B00000320C00420C018B2D001D400033A10088
:1042C00012400024A1202320E0E2202BCCD2CD10EC
:1042D00041CBFBE020944022902212BC002211200E
:1042E00060319686002029316060848609000CA325
:1042F0007CF782A4B01B23000340E030916067C0CC
:104300003030043A668A6640669062960CD6460063
:104310003D02C6F7FF000240E0E09120DDC022A090
:10432000FF67B2024649000602001C83C6E4005D36
:104330000BCD0F82212987B5F06245001B5586FD04
:10434000000CE9D73919320C01220C0080331120FE
:104350002320001D400022A120EE202BCCD2CD1026
:1043600032A0B0E0209441A5FB3A224022902212D4
:104370000C002211203031202931D6A3020CA41BBD
:10438000247CF6000440E040913036C04040044AAE
:104390003372A4B0919AFB7A3390339032930CD657
:1043A00053004D02C6F5FF006D03000240E0E091AE
:1043B00020DDC0870302C624000CE2D73219420C6C
:1043C00001220C00804411202420001D400022A165
:1043D00020EE202BCCD2CD1042A0B0E020947187EB
:1043E000FB4A2270229042120C00441140903192FC
:1043F0006127404931D6F9020CA79221271B477C3F
:10440000F2000740E070919022C07070047A22910F
:104410007BFB72A4B07A2290229022920C22612718
:10442000D642007D0446F4FF2221273245000004D5
:1044300040E0E09140DDC08702061B556D02C602D8
:10444000003221273245012B554667FF006060840A
:1044500066F60246BA0022AEFF2A662184FBE066B9
:10446000116A2228022261242182FB6A62280662E4
:10447000212416260667BD446D02A7BC0646080027
:104480005D0BCD0F7221250C233037109CA31C939C
:104490004621FD0000A7BFE71BCF320F005D0BC612
:1044A0000100320C001BCC4600002D0682212400A6
:1044B0001D400033A18BDD30EE20873DBA922124D0
:1044C0000C130019400033A10B33E0331090DDC012
:1044D000000940E0E0913A220CE3D7B302C6340071
:1044E000C03AC0A62302C62A007144FBE030947093
:1044F000339032D30F62130C00661160403196A4E2
:10450000016069310C1467BD0242A0000C030C1756
:10451000603793470302862600C60B000CA3D7B36F
:104520002A9154FB7CF8000340E060914048C06051
:1045300060046A449A4470449042940CD644071B29
:10454000632B33373D053D0686F6FF006D02A7BCA1
:1045500006C607005D0BCD0F7221250C23303710E6
:104560009C831CA346ECFCA7BFE91BCF320F005D68
:104570000BC60100320C001BCC4600002D06001DAE
:10458000400033A130EE208BDD0CE3D73302C6D5DB
:10459000FFC6070000320C00620C018B4D001D406D
:1045A0000033A10014400046A140332030EE202B00
:1045B000CCD2CD107112FBE0309470339032D30F17
:1045C00042130C0044114030319683004049313091
:1045D00030848609009127FB0CA67CF81B46000658
:1045E00040E060913038C06060046A339A337033C1
:1045F0009032930CD643006D04C6F7FF000440E0F0
:10460000E09140DDC0411CFBE033113A44480442D4
:104610006124411AFB8221243A3438033261261680
:10462000680687BD426D02A7BC06C607005D0BCDBC
:104630000F9221250C233039109C831CB306B6FC45
:10464000A7BFE91BCF320F005D0BC60100320C0083
:104650001BCC4600002D06622124001D400033A122
:104660008BDD30EE20673DBC7221240C1300174017
:104670000033A18221260B33E033103A8800074033
:10468000E0E09170DDC082612691E4FA622126901B
:1046900095C072212C41E1FA6039C07033104A3361
:1046A00092612A30432057B3025045208221292AA3
:1046B00044473845C6120021D1FA2C533962C660EE
:1046C000003C5321CEFA0C243962465F005D0BCDCD
:1046D0000F92212997B5E972212A82212692212C55
:1046E0008027C031CEFA9022102A232202001B77A5
:1046F00022450072612A1B552D060B625612FD469B
:104700000D000042030062C2FD4245004203014227
:1047100045014203023B334245023B55A636042D78
:104720000686F7FFA616102203002245006626051E
:104730002203012245016A5582A100C6AAFE00009B
:1047400021AFFA28B207E202066DFCD0202427BD73
:104750003EA73C27060100005D0BCD0F7221250C02
:10476000222027102C038C12466BFC86040000A725
:10477000BFE51BCF220F005D0B060100220C001BC2
:10478000CC001D400022A120EE208BDDC6EEFF00F4
:10479000D02024000240E0E0917C8220DD100C0655
:1047A00016CD04F68D3DA73C26C600005D0BCD0F4F
:1047B0008221250C222028102C938C124656FC8630
:1047C0000400A7BFE61BCF220F005D0B46010000CF
:1047D000220C001BCC001D400022A120EE208BDD0E
:1047E000C6EFFF00E02074D2CDF8E0E841460B00B0
:1047F000A73C25C600005D0BCD0F9221250C222081
:1048000029102CA38C12C643FC460400A7BFE61B4C
:10481000CF220F005D0B060100220C001BCC31776C
:10482000FA1B6648A380441140222029A3F64607BC
:1048300006DBFF005D0BCD0F2171FA2C2339620CD2
:1048400004860100005D0BCD0F7CF4216CFA72210F
:104850002682212492212AD972E2621479E269F235
:104860008262109262157CFEF0DCC0B0C5C0E79495
:1048700002C6400058D23182FA50E0F42D0C50505C
:10488000F5426130526134B26135018DFAC00000E9
:104890007D028D0C0C79422130522134B2213546F3
:1048A00028000000A20300EAEAA203015A5EAAEE71
:1048B000A20302EA55AAEEA20303EA55AAEEA20356
:1048C00004EA55AAEEA20305EA55AAEEA20306EAF7
:1048D00055AAEEA20307EA55AAEEEA558B332AA39E
:1048E000773AC0702341B022B0B0A0604602000009
:1048F0003202001B223AEEEA552A3ABD027733EF24
:104900003161FA2D0E426130726132826131926101
:104910002FB26135526134016AFAC000005221346D
:104920003159FAED022D050166FAC00000722132FC
:10493000822131B221357088C092212F7151FA4203
:1049400021305D028C683D0BB029C0C6E3FF0055E5
:1049500011212AFAEA5559D2ED04DCA4E8A27CE23E
:10496000E0E5C0E08293ED08060300000C0C860031
:104970000000CD05DD0C7CDE3144FA62212B2823BA
:10498000D066C0D022C0DAFFD123FA2923380D71B6
:1049900023FACAC3703CC00C1562612B0C0262D3AF
:1049A000806025830B5E505E20505F05C90D50224C
:1049B000208C72CD072D07853300C90D82212BC1B4
:1049C0000FFACC48D68E01460300283C1642FFA6BB
:1049D0001E02C665FBC6FAFF22A0C7295CC60300FB
:1049E000CCCE283CCC12C65FFA22A0C886020000BA
:1049F000283C8C12465CFA22A0C9295C465AFA006F
:104A0000282C8C124658FA2100FA012AFAC000001C
:104A1000012FFAC00000C653FA00283CCC12C65140
:104A2000FAC002004650FA00012AFAC0000020DF56
:104A300083C69FFAE82CD83CE02D202020B48C12AD
:104A40008610FBC69EFA282C383CC55C00C60200C6
:104A5000000000222C02322C05C53000D2A0000C30
:104A60001320D3930608FB0000322C05222C02D21F
:104A70002C03426130052F0031E1F942213020DD65
:104A800011E96332D32BD923204E8386BBFA282C1D
:104A9000383C484C585C686C787C0C0D0101FAC0BD
:104AA0000000ED020C12E0D29306FAFA01FCF9C004
:104AB00000000C0D06F4FA00282C383CC020003908
:104AC000020C0EDD0E06F3FA21CEF9485C382C49B3
:104AD0000221CCF9390206F6FF41CAF90C0258044A
:104AE00032A0C8290441C6F95032830C1D29043074
:104AF000D28386E4FA02214392A110C22142D2213C
:104B000041E22140F2213F9A110DF000F8020060CD
:104B100010020060000200600000000831FCFFC0CD
:104B2000200028032020245642FF31F9FF41FAFFDC
:104B3000C02000290321F7FFC020004902C0200047
:104B400048025674FFC0200038030C123030042095
:104B500023300DF0080000601C00006000000060C1
:104B6000942BFF3F84800000404000004CEBFE3F50
:104B700010000060982BFF3F21F7FF12C1F0D91100
:104B8000C02000D8020931C92121F3FFC02000C292
:104B90002200C0C074167C0931F1FFC0200022231E
:104BA0000031EFFF202074854F0032AFFE96720374
:104BB0003187F94187F9202074404380C020005894
:104BC0000441E8FF4A334213004040F41B64606034
:104BD000F4C020006253004A45C020002244003245
:104BE000130021E1FF3030F427933C2178F931782C
:104BF000F941E0FF3A32C02000680351DCFF2796FC
:104C00000FC6FFFFC020002904C020005903460240
:104C100000C020005904C02000290331D2FF3A22ED
:104C20000C03C020003252000BCC56ACF606D6FF67
:104C300021D0FF0831C02000D902C821D81112C1EB
:104C4000100DF0000000800000000040FFFFFF009A
:104C50000402006012C1F0C26102C168F90261037E
:104C6000222C0416A20745EBFF164207C5EAFF16E1
:104C700092FF21A8FF31F4FFC020003902C02000BC
:104C800038025673FF284C0CF32723070C124153AC
:104C9000F9060300282C20203456F2FE41EAFF1CBE
:104CA00002582C619AFF405511C020003226003076
:104CB00030245633FF31E5FF30551031E5FFC02079
:104CC0000059033194FFC02000426300C020004817
:104CD000035674FF384C2033C0394C382C3A222903
:104CE0002C0831C82112C1100DF000004C4A0040C0
:104CF00012C1E0C961C141F9D951483CE94109718A
:104D0000F931ED02DD0337B40240D420165D04F81A
:104D10001CFAFDF0FC4186000085F3FF284CE612EA
:104D20000A85DFFF1692FF8602000000282C27AFBD
:104D3000E706FBFF00281C3D0E4D0D01ECFFC000F7
:104D4000008C3222A0C4295C281C2A2D291C283C56
:104D5000D0D2C0D93C0871C861D851E841F83112AD
:104D6000C1200DF0FF0F00004125F912C1F00931FB
:104D7000C9210C15524400305C41592451FAFF39C5
:104D80001429343030B45A223A220C0C202C41C958
:104D90005429440145F9C0000008313D0222A0C554
:104DA000302C83C82112C1100DF0000012C1F02276
:104DB000A0DB0931013CF9C0000022A0DC0139F977
:104DC000C00000083112C1100DF0000012C1F0093E
:104DD0003132A0C037920545FDFF06050032A0DB49
:104DE0003792080130F9C0000022A0DD012EF9C081
:104DF0000000083112C1100DF000000012C1F0C90E
:104E000021D9110931CD023AD2C60100220C001B72
:104E1000CC85FBFFD79CF40831C821D81112C110F2
:104E20000DF0000012C1E0C961CD0222A0C00971DD
:104E3000326100011CF9C0000038012D0CC5FBFFD8
:104E400022A0C00118F9C000000871C86112C12079
:104E50000DF00000581000006810000070100000F5
:104E600074100000781000007C100000801000001A
:104E700090100000980F0040189800401C4B004014
:104E800034980040643B00400099004091F9FF12C3
:104E9000C1E061F2FFC961E941F9310971D951906D
:104EA00011C01A66290621EEFFC2D1101A2239025A
:104EB00031EDFF2C021A33F2A000ED04526300F230
:104EC0006C1A01ECFFC0000021C7F8E7B202864C63
:104ED000002D0C01E9FFC0000021DEFF41E3FF2AA5
:104EE000511A445904C63C000061DDFF1A66680689
:104EF000F0D6C0D7BE01DD0E31D9FF51DCFF1A3329
:104F000028031A5579053D014D0D01DCFFC0000055
:104F100061D7FF1A6678068C620C04426C16C613C1
:104F20000041D2FF2D011A4479043D0D45EFFF2DBC
:104F30000C3D014D0D01D2FFC0000051C8FFDAFF4A
:104F40001A555805DA6551C5FF1A55690561C7FF3D
:104F50001A66780621C3FF1A22280227BFBA31C178
:104F6000FF702FC01A33380337B20286DEFFC6E95E
:104F7000FF51BEFF1A5542650001C2FFC00000612B
:104F8000BAFF1A66380685110051B8FF0C131A557E
:104F90004805B6440232A0007CF5205530505F042D
:104FA00037050E61ADFF1A664A362243001B448660
:104FB000EFFF7CE33792B926442121A6FF3D0C1A6E
:104FC0002201B1FFC0000021A3FF1C031A2245E506
:104FD000FF2C0201B1F8C00000C60900722C1A3281
:104FE000A00177BF0232A000419EFF0C121A44427A
:104FF000240047370222A00020231007620286D433
:10500000FF46EDFF919BFF9A110871C861D851E8E6
:1050100041F83112C1200DF09191FF12C1E0C96138
:10502000E941F9310971D9519011C0ED0222D11035
:10503000CD030191FFC00000F16BF8C60900DD0C43
:10504000C7BF01DD0F2D0E3D014D0D018CFFC000CE
:1050500000FC1222D1103D01D04D200189FFC0007B
:1050600000DAEED0CCC0564CFD217AFF32D1101AB6
:10507000220185FFC000002177FF1C031A22C5D73B
:10508000FF2D0C86000022A0639174FF9A11087115
:10509000C861D851E841F83112C1200DF00000007C
:1050A00052A0C0480357920B0C129C740C022903A7
:1050B0007CE20DF0261405262411860B0042A0DBAD
:1050C00047922A0C222903460800000042A0DC4730
:1050D00092090C1229032D050DF0000042A0DD47B6
:1050E00092090C12290322A0DB0DF0007CF20DF0D6
:1050F000A42BFF3F050504000203070003030B0078
:10510000370610406C061040B10610406F07104083
:1051100091161040C6071040180810406E08104045
:105120009116104061091040E00910409F0A10409C
:1051300091161040911610403B0B104091161040F4
:10514000140E1040EF0E1040270F10409116104023
:1051500091161040D50F104091161040D4101040F9
:105160007B111040E1121040B31310408C1410401A
:105170009116104091161040911610409116104053
:10518000BB1510409116104080161040630C104063
:10519000390710400315104087091040D608104009
:1051A0007E0910400E1610405816104091161040FF
:1051B0009116104091161040911610409116104013
:1051C000911610409116104091161040FF081040A3
:1051D00035091040191510400100000002000000C0
:1051E00003000000040000000500000007000000AC
:1051F000090000000D00000011000000190000006F
:1052000021000000310000004100000061000000AA
:1052100081000000C10000000101000081010000C8
:10522000010200000103000001040000010600006B
:1052300001080000010C000001100000011800002E
:10524000012000000130000001400000016000006A
:10525000000000000000000000000000000000004E
:10526000000000000000000001000000010000003C
:105270000200000002000000030000000300000024
:10528000040000000400000005000000050000000C
:1052900006000000060000000700000007000000F4
:1052A00008000000080000000900000009000000DC
:1052B0000A0000000A0000000B0000000B000000C4
:1052C0000C0000000C0000000D0000000D000000AC
:1052D00000000000000000000300000004000000C7
:1052E00005000000060000000700000008000000A4
:1052F000090000000A0000000B0000000D00000083
:105300000F00000011000000130000001700000053
:105310001B0000001F000000230000002B00000005
:10532000330000003B000000430000005300000079
:10533000630000007300000083000000A300000071
:10534000C3000000E30000000201000000000000B4
:10535000000000000000000000000000000000004D
:10536000000000000000000000000000000000003D
:10537000000000000100000001000000010000002A
:105380000100000002000000020000000200000016
:105390000200000003000000030000000300000002
:1053A00003000000040000000400000004000000EE
:1053B00004000000050000000500000005000000DA
:1053C00005000000000000000000000000000000D8
:1053D00010111200080709060A050B040C030D0240
:1053E0000E010F0001010000010000000400000098
:1053F000070712200000000000000000FFFFFFFF71
:10540000000000005000F03F5400F03F5800F03F13
:105410005C00F03F140000601C0200602402006089
:10542000200200601C020060240200604002006054
:105430000002006000170000000000909F00007054
:105440000000000000000400000200604002006054
:105450001C02006024020060440000800000007014
:10546000805400080000002018000000C40100085B
:105470009854000818000020B84E0000E001000811
:10548000000000000000000000000000000000001C
:08549000000000000100000013
:040000050800018965
:00000001FF
